{
  "address": "0x819E688c22E2D6daEd047ca6E7a5C775A903536A",
  "abi": [
    {
      "inputs": [],
      "name": "greeting",
      "outputs": [
        {
          "internalType": "string",
          "name": "",
          "type": "string"
        }
      ],
      "stateMutability": "pure",
      "type": "function"
    }
  ],
  "transactionHash": "0x978fc6b07a4373bc3dae3b5d79ed7c976a34df86428b4dbc6010724cce637fdb",
  "args": [],
  "numDeployments": 2,
  "solcInputHash": "c8d5bdfa2f1751c5dbdfde6e408d3ba0",
  "bytecode": "0x6080604052348015600f57600080fd5b506101738061001f6000396000f3fe608060405234801561001057600080fd5b506004361061002b5760003560e01c8063ef690cc014610030575b600080fd5b61003861004e565b604051610045919061011b565b60405180910390f35b60606040518060400160405280600c81526020017f48656c6c6f20576f726c64210000000000000000000000000000000000000000815250905090565b600081519050919050565b600082825260208201905092915050565b60005b838110156100c55780820151818401526020810190506100aa565b60008484015250505050565b6000601f19601f8301169050919050565b60006100ed8261008b565b6100f78185610096565b93506101078185602086016100a7565b610110816100d1565b840191505092915050565b6000602082019050818103600083015261013581846100e2565b90509291505056fea2646970667358221220db90f98d711147ca659a4084be8ffc73c2aae10ac0fd062c868cd92544f77c7164736f6c634300081a0033",
  "devdoc": {
    "kind": "dev",
    "methods": {},
    "version": 1
  },
  "userdoc": {
    "kind": "user",
    "methods": {},
    "version": 1
  },
  "storageLayout": {
    "storage": [],
    "types": null
  }
}